{
  "contractName": "LELOTokenSale",
  "abi": [
    {
      "inputs": [
        {
          "internalType": "contract LELOToken",
          "name": "_tokenContract",
          "type": "address"
        }
      ],
      "stateMutability": "nonpayable",
      "type": "constructor"
    },
    {
      "anonymous": false,
      "inputs": [
        {
          "indexed": false,
          "internalType": "address",
          "name": "_buyer",
          "type": "address"
        },
        {
          "indexed": false,
          "internalType": "uint256",
          "name": "_amount",
          "type": "uint256"
        }
      ],
      "name": "Sell",
      "type": "event"
    },
    {
      "inputs": [],
      "name": "tokenContract",
      "outputs": [
        {
          "internalType": "contract LELOToken",
          "name": "",
          "type": "address"
        }
      ],
      "stateMutability": "view",
      "type": "function",
      "constant": true
    },
    {
      "inputs": [],
      "name": "tokenPrice",
      "outputs": [
        {
          "internalType": "uint256",
          "name": "",
          "type": "uint256"
        }
      ],
      "stateMutability": "view",
      "type": "function",
      "constant": true
    },
    {
      "inputs": [],
      "name": "tokensSold",
      "outputs": [
        {
          "internalType": "uint256",
          "name": "",
          "type": "uint256"
        }
      ],
      "stateMutability": "view",
      "type": "function",
      "constant": true
    },
    {
      "inputs": [],
      "name": "getTokenPrice",
      "outputs": [
        {
          "internalType": "uint256",
          "name": "out",
          "type": "uint256"
        }
      ],
      "stateMutability": "view",
      "type": "function",
      "constant": true
    },
    {
      "inputs": [],
      "name": "getTokenSold",
      "outputs": [
        {
          "internalType": "uint256",
          "name": "",
          "type": "uint256"
        }
      ],
      "stateMutability": "view",
      "type": "function",
      "constant": true
    },
    {
      "inputs": [],
      "name": "getTier1",
      "outputs": [
        {
          "internalType": "uint256",
          "name": "",
          "type": "uint256"
        }
      ],
      "stateMutability": "view",
      "type": "function",
      "constant": true
    },
    {
      "inputs": [],
      "name": "getTier2",
      "outputs": [
        {
          "internalType": "uint256",
          "name": "",
          "type": "uint256"
        }
      ],
      "stateMutability": "view",
      "type": "function",
      "constant": true
    },
    {
      "inputs": [
        {
          "internalType": "uint256",
          "name": "_tokenPrice",
          "type": "uint256"
        }
      ],
      "name": "setTokenPrice",
      "outputs": [],
      "stateMutability": "nonpayable",
      "type": "function"
    },
    {
      "inputs": [
        {
          "internalType": "uint256",
          "name": "_numberOfTokens",
          "type": "uint256"
        }
      ],
      "name": "buyTokens",
      "outputs": [],
      "stateMutability": "payable",
      "type": "function",
      "payable": true
    }
  ],
  "bytecode": "0x60806040526502d1c66618006002556301c9c3806004556302faf08060055534801561002a57600080fd5b506040516107cf3803806107cf8339818101604052602081101561004d57600080fd5b8101908080519060200190929190505050336000806101000a81548173ffffffffffffffffffffffffffffffffffffffff021916908373ffffffffffffffffffffffffffffffffffffffff16021790555080600160006101000a81548173ffffffffffffffffffffffffffffffffffffffff021916908373ffffffffffffffffffffffffffffffffffffffff160217905550506106e0806100ef6000396000f3fe6080604052600436106100865760003560e01c806355a373d61161005957806355a373d61461013a5780636a61e5fc146101915780637cb04d5d146101cc5780637ff9b596146101f757806394d773631461022257610086565b80631530569b1461008b5780633610724e146100b65780634b94f50e146100e4578063518ab2a81461010f575b600080fd5b34801561009757600080fd5b506100a061024d565b6040518082815260200191505060405180910390f35b6100e2600480360360208110156100cc57600080fd5b8101908080359060200190929190505050610257565b005b3480156100f057600080fd5b506100f96104de565b6040518082815260200191505060405180910390f35b34801561011b57600080fd5b5061012461052e565b6040518082815260200191505060405180910390f35b34801561014657600080fd5b5061014f610534565b604051808273ffffffffffffffffffffffffffffffffffffffff1673ffffffffffffffffffffffffffffffffffffffff16815260200191505060405180910390f35b34801561019d57600080fd5b506101ca600480360360208110156101b457600080fd5b810190808035906020019092919050505061055a565b005b3480156101d857600080fd5b506101e161061c565b6040518082815260200191505060405180910390f35b34801561020357600080fd5b5061020c610626565b6040518082815260200191505060405180910390f35b34801561022e57600080fd5b5061023761062c565b6040518082815260200191505060405180910390f35b6000600554905090565b610268816102636104de565b610636565b341461027357600080fd5b60006004541415801561028857508060045410155b806102b2575060006004541480156102a35750600060055414155b80156102b157508060055410155b5b806102bf57506000600554145b610314576040517f08c379a00000000000000000000000000000000000000000000000000000000081526004018080602001828103825260248152602001806106636024913960400191505060405180910390fd5b806003546305f5e100031161032857600080fd5b600160009054906101000a900473ffffffffffffffffffffffffffffffffffffffff1673ffffffffffffffffffffffffffffffffffffffff1663a9059cbb33836040518363ffffffff1660e01b8152600401808373ffffffffffffffffffffffffffffffffffffffff1673ffffffffffffffffffffffffffffffffffffffff16815260200182815260200192505050602060405180830381600087803b1580156103d157600080fd5b505af11580156103e5573d6000803e3d6000fd5b505050506040513d60208110156103fb57600080fd5b810190808051906020019092919050505061041557600080fd5b6000600454146104345780600460008282540392505081905550610460565b60006004541480156104495750600060055414155b1561045f57806005600082825403925050819055505b5b806003600082825401925050819055507f5e5e995ce3133561afceaa51a9a154d5db228cd7525d34df5185582c18d3df093382604051808373ffffffffffffffffffffffffffffffffffffffff1673ffffffffffffffffffffffffffffffffffffffff1681526020018281526020019250505060405180910390a150565b60006301c9c38060035410156104fc576502d1c66618009050610528565b6301c9c3806003541015801561051857506304c4b40060035411155b15610527576505a38ccc300090505b5b80905090565b60035481565b600160009054906101000a900473ffffffffffffffffffffffffffffffffffffffff1681565b6000809054906101000a900473ffffffffffffffffffffffffffffffffffffffff1673ffffffffffffffffffffffffffffffffffffffff163373ffffffffffffffffffffffffffffffffffffffff16146105b357600080fd5b6304c4b4006003541015610612576040517f08c379a00000000000000000000000000000000000000000000000000000000081526004018080602001828103825260248152602001806106876024913960400191505060405180910390fd5b8060028190555050565b6000600454905090565b60025481565b6000600354905090565b600080821480610653575082828385029250828161065057fe5b04145b61065c57600080fd5b9291505056fe46697273742070757263686173652066726f6d2074686520616c6c6f746564207469657250726573616c65202f20536565642053616c65206973207374696c6c2070656e64696e67a264697066735822122084624c17e2687df3a01fd5e2019f66a602ebc314a1bf2a83349e5a693bc4b87f64736f6c63430006010033",
  "source": "pragma solidity ^0.6.0;\r\n\r\nimport \"./LELOToken.sol\";\r\n\r\ncontract LELOTokenSale {\r\n    address payable admin;\r\n    LELOToken public tokenContract;\r\n    uint256 public tokenPrice = 3100000000000;\r\n    uint256 public tokensSold;\r\n    uint256 private _tier1 = 30e6;\r\n    uint256 private _tier2 = 50e6;\r\n\r\n    event Sell(address _buyer, uint256 _amount);\r\n\r\n    constructor (LELOToken _tokenContract) public {\r\n        admin = msg.sender;\r\n        tokenContract = _tokenContract;\r\n    }\r\n\r\n    function multiply(uint256 x, uint256 y) internal pure returns (uint256 z) {\r\n        require(y == 0 || (z = x * y) / y == x);\r\n    }\r\n\r\n    function getTokenPrice() public view returns (uint256 out){\r\n        if(tokensSold < 30e6){\r\n            // 0.01$ = 0.0000031 eth\r\n            out = 31e11;     // token price in wei\r\n        }\r\n        \r\n        else if(tokensSold >= 30e6 && tokensSold <=80e6){\r\n            // 0.02$ = 0.0000062 eth\r\n            out = 62e11; //token price in wei\r\n        }\r\n\r\n        return out;\r\n\r\n    }\r\n\r\n    function getTokenSold() public view returns (uint256){\r\n        return tokensSold;\r\n    }\r\n\r\n    function getTier1() public view returns (uint256){\r\n        return _tier1;\r\n    }\r\n\r\n    function getTier2() public view returns (uint256){\r\n        return _tier2;\r\n    }\r\n\r\n    function setTokenPrice(uint _tokenPrice) public{\r\n        require(msg.sender == admin);\r\n        require(tokensSold >= 80e6, \"Presale / Seed Sale is still pending\");\r\n        tokenPrice = _tokenPrice;\r\n    }\r\n\r\n    function buyTokens(uint256 _numberOfTokens) public payable {\r\n        require(msg.value == multiply(_numberOfTokens, getTokenPrice()));\r\n        require((_tier1!=0 && _tier1>= _numberOfTokens) \r\n        || (_tier1 == 0 && _tier2!=0 && _tier2 >= _numberOfTokens) \r\n        || (_tier2 == 0), \r\n        \"First purchase from the alloted tier\");\r\n        require((100e6 - tokensSold) > _numberOfTokens);\r\n        require(tokenContract.transfer(msg.sender, _numberOfTokens));\r\n        if(_tier1 != 0){                                 // If tier1 is not empty subtract number of tokens from it\r\n            _tier1 -= _numberOfTokens;\r\n        }\r\n        else if(_tier1 ==0 && _tier2 !=0){                // else if tier1 is empty start alloting from tier 2 \r\n            _tier2 -= _numberOfTokens;\r\n        }\r\n        tokensSold += _numberOfTokens;\r\n\r\n        emit Sell(msg.sender, _numberOfTokens);\r\n    }\r\n}",
  "sourcePath": "C:\\Users\\Acer\\Desktop\\Solulab\\Tasks\\contracts\\LELOTokenSale.sol",
  "compiler": {
    "name": "solc",
    "version": "0.6.1+commit.e6f7d5a4.Emscripten.clang"
  },
  "schemaVersion": "3.4.3",
  "updatedAt": "2021-10-04T10:38:52.057Z",
  "networkType": "ethereum",
  "devdoc": {
    "methods": {}
  },
  "userdoc": {
    "methods": {}
  }
}